{
  "contractName": "Escrow",
  "abi": [
    {
      "inputs": [
        {
          "internalType": "address",
          "name": "registry",
          "type": "address"
        }
      ],
      "stateMutability": "nonpayable",
      "type": "constructor"
    },
    {
      "anonymous": false,
      "inputs": [
        {
          "indexed": false,
          "internalType": "address",
          "name": "from",
          "type": "address"
        },
        {
          "indexed": false,
          "internalType": "uint256",
          "name": "amount",
          "type": "uint256"
        },
        {
          "indexed": false,
          "internalType": "address",
          "name": "to",
          "type": "address"
        }
      ],
      "name": "LogConfirm",
      "type": "event"
    },
    {
      "anonymous": false,
      "inputs": [
        {
          "indexed": false,
          "internalType": "address",
          "name": "from",
          "type": "address"
        },
        {
          "indexed": false,
          "internalType": "uint256",
          "name": "amount",
          "type": "uint256"
        },
        {
          "indexed": false,
          "internalType": "address",
          "name": "to",
          "type": "address"
        }
      ],
      "name": "LogDeposit",
      "type": "event"
    },
    {
      "anonymous": false,
      "inputs": [
        {
          "indexed": false,
          "internalType": "address",
          "name": "from",
          "type": "address"
        },
        {
          "indexed": false,
          "internalType": "uint256",
          "name": "amount",
          "type": "uint256"
        },
        {
          "indexed": false,
          "internalType": "address",
          "name": "to",
          "type": "address"
        }
      ],
      "name": "LogRefund",
      "type": "event"
    },
    {
      "stateMutability": "nonpayable",
      "type": "fallback"
    },
    {
      "stateMutability": "payable",
      "type": "receive"
    },
    {
      "inputs": [
        {
          "internalType": "address",
          "name": "_to",
          "type": "address"
        }
      ],
      "name": "deposit",
      "outputs": [
        {
          "internalType": "bytes32",
          "name": "",
          "type": "bytes32"
        }
      ],
      "stateMutability": "payable",
      "type": "function"
    },
    {
      "inputs": [
        {
          "internalType": "bytes32",
          "name": "_id",
          "type": "bytes32"
        }
      ],
      "name": "confirm",
      "outputs": [],
      "stateMutability": "nonpayable",
      "type": "function"
    },
    {
      "inputs": [
        {
          "internalType": "bytes32",
          "name": "_id",
          "type": "bytes32"
        }
      ],
      "name": "refund",
      "outputs": [],
      "stateMutability": "nonpayable",
      "type": "function"
    }
  ],
  "bytecode": "0x60806040523480156200001157600080fd5b506040516200102038038062001020833981810160405281019062000037919062000084565b60006040516020016200004a90620000d7565b604051602081830303815290604052805190602001209050818155505062000170565b6000815190506200007e8162000156565b92915050565b6000602082840312156200009757600080fd5b6000620000a7848285016200006d565b91505092915050565b6000620000bf601083620000ee565b9150620000cc826200012d565b601082019050919050565b6000620000e482620000b0565b9150819050919050565b600081905092915050565b600062000106826200010d565b9050919050565b600073ffffffffffffffffffffffffffffffffffffffff82169050919050565b7f657363726f772e61646d696e2e6c6f6300000000000000000000000000000000600082015250565b6200016181620000f9565b81146200016d57600080fd5b50565b610ea080620001806000396000f3fe6080604052600436106100385760003560e01c80637249fbb614610054578063797af6271461007d578063f340fa01146100a657610042565b3661004257600080fd5b34801561004e57600080fd5b50600080fd5b34801561006057600080fd5b5061007b60048036038101906100769190610a6f565b6100d6565b005b34801561008957600080fd5b506100a4600480360381019061009f9190610a6f565b610428565b005b6100c060048036038101906100bb9190610a46565b610745565b6040516100cd9190610c08565b60405180910390f35b806000806000838152602001908152602001600020600001541415610130576040517f08c379a000000000000000000000000000000000000000000000000000000000815260040161012790610c23565b60405180910390fd5b816000600281111561016b577f4e487b7100000000000000000000000000000000000000000000000000000000600052602160045260246000fd5b60008083815260200190815260200160002060020160149054906101000a900460ff1660028111156101c6577f4e487b7100000000000000000000000000000000000000000000000000000000600052602160045260246000fd5b146101d057600080fd5b823373ffffffffffffffffffffffffffffffffffffffff1660008083815260200190815260200160002060010160009054906101000a900473ffffffffffffffffffffffffffffffffffffffff1673ffffffffffffffffffffffffffffffffffffffff16148061027257503373ffffffffffffffffffffffffffffffffffffffff1661025a61099e565b73ffffffffffffffffffffffffffffffffffffffff16145b6102b1576040517f08c379a00000000000000000000000000000000000000000000000000000000081526004016102a890610c63565b60405180910390fd5b6000806000868152602001908152602001600020600001549050600080600087815260200190815260200160002060010160009054906101000a900473ffffffffffffffffffffffffffffffffffffffff169050600160008088815260200190815260200160002060020160146101000a81548160ff02191690836002811115610364577f4e487b7100000000000000000000000000000000000000000000000000000000600052602160045260246000fd5b02179055508073ffffffffffffffffffffffffffffffffffffffff166108fc839081150290604051600060405180830381858888f193505050501580156103af573d6000803e3d6000fd5b507f61f699f59fb091fc805011c4a28b175567a2ea546bd32e2e4c6407881602a4e681836000808a815260200190815260200160002060020160009054906101000a900473ffffffffffffffffffffffffffffffffffffffff1660405161041893929190610bd1565b60405180910390a1505050505050565b806000806000838152602001908152602001600020600001541415610482576040517f08c379a000000000000000000000000000000000000000000000000000000000815260040161047990610c23565b60405180910390fd5b81600060028111156104bd577f4e487b7100000000000000000000000000000000000000000000000000000000600052602160045260246000fd5b60008083815260200190815260200160002060020160149054906101000a900460ff166002811115610518577f4e487b7100000000000000000000000000000000000000000000000000000000600052602160045260246000fd5b1461052257600080fd5b823373ffffffffffffffffffffffffffffffffffffffff1660008083815260200190815260200160002060010160009054906101000a900473ffffffffffffffffffffffffffffffffffffffff1673ffffffffffffffffffffffffffffffffffffffff1614806105c457503373ffffffffffffffffffffffffffffffffffffffff166105ac61099e565b73ffffffffffffffffffffffffffffffffffffffff16145b610603576040517f08c379a00000000000000000000000000000000000000000000000000000000081526004016105fa90610c63565b60405180910390fd5b6000806000868152602001908152602001600020600001549050600080600087815260200190815260200160002060020160009054906101000a900473ffffffffffffffffffffffffffffffffffffffff169050600260008088815260200190815260200160002060020160146101000a81548160ff021916908360028111156106b6577f4e487b7100000000000000000000000000000000000000000000000000000000600052602160045260246000fd5b02179055508073ffffffffffffffffffffffffffffffffffffffff166108fc839081150290604051600060405180830381858888f19350505050158015610701573d6000803e3d6000fd5b507f7663461d926cccae1aee1c6610ae31bb7d0fa64da63da2d73d9b029bf751935c33838360405161073593929190610bd1565b60405180910390a1505050505050565b6000803411610789576040517f08c379a000000000000000000000000000000000000000000000000000000000815260040161078090610c43565b60405180910390fd5b81600073ffffffffffffffffffffffffffffffffffffffff168173ffffffffffffffffffffffffffffffffffffffff1614156107c457600080fd5b60006107ce6109d0565b905060405180608001604052803481526020013373ffffffffffffffffffffffffffffffffffffffff1681526020018573ffffffffffffffffffffffffffffffffffffffff16815260200160006002811115610853577f4e487b7100000000000000000000000000000000000000000000000000000000600052602160045260246000fd5b8152506000808381526020019081526020016000206000820151816000015560208201518160010160006101000a81548173ffffffffffffffffffffffffffffffffffffffff021916908373ffffffffffffffffffffffffffffffffffffffff16021790555060408201518160020160006101000a81548173ffffffffffffffffffffffffffffffffffffffff021916908373ffffffffffffffffffffffffffffffffffffffff16021790555060608201518160020160146101000a81548160ff02191690836002811115610951577f4e487b7100000000000000000000000000000000000000000000000000000000600052602160045260246000fd5b02179055509050507f7235702039c95755efa35aa4a8208920cc347a1a3685c13ef9ef6dedc2859be133348660405161098c93929190610bd1565b60405180910390a18092505050919050565b6000806040516020016109b090610b7f565b604051602081830303815290604052805190602001209050805491505090565b6000600160008154809291906109e590610ce5565b91905055504233600154604051602001610a0193929190610b94565b60405160208183030381529060405280519060200120905090565b600081359050610a2b81610e3c565b92915050565b600081359050610a4081610e53565b92915050565b600060208284031215610a5857600080fd5b6000610a6684828501610a1c565b91505092915050565b600060208284031215610a8157600080fd5b6000610a8f84828501610a31565b91505092915050565b610aa181610c9f565b82525050565b610ab8610ab382610c9f565b610d2e565b82525050565b610ac781610cb1565b82525050565b6000610ada601483610c83565b9150610ae582610d98565b602082019050919050565b6000610afd601a83610c83565b9150610b0882610dc1565b602082019050919050565b6000610b20600d83610c83565b9150610b2b82610dea565b602082019050919050565b6000610b43601083610c94565b9150610b4e82610e13565b601082019050919050565b610b6281610cdb565b82525050565b610b79610b7482610cdb565b610d52565b82525050565b6000610b8a82610b36565b9150819050919050565b6000610ba08286610b68565b602082019150610bb08285610aa7565b601482019150610bc08284610b68565b602082019150819050949350505050565b6000606082019050610be66000830186610a98565b610bf36020830185610b59565b610c006040830184610a98565b949350505050565b6000602082019050610c1d6000830184610abe565b92915050565b60006020820190508181036000830152610c3c81610acd565b9050919050565b60006020820190508181036000830152610c5c81610af0565b9050919050565b60006020820190508181036000830152610c7c81610b13565b9050919050565b600082825260208201905092915050565b600081905092915050565b6000610caa82610cbb565b9050919050565b6000819050919050565b600073ffffffffffffffffffffffffffffffffffffffff82169050919050565b6000819050919050565b6000610cf082610cdb565b91507fffffffffffffffffffffffffffffffffffffffffffffffffffffffffffffffff821415610d2357610d22610d5c565b5b600182019050919050565b6000610d3982610d40565b9050919050565b6000610d4b82610d8b565b9050919050565b6000819050919050565b7f4e487b7100000000000000000000000000000000000000000000000000000000600052601160045260246000fd5b60008160601b9050919050565b7f6f7264657220646f6573206e6f74206578697374000000000000000000000000600082015250565b7f6e65656420746f206465706f7369742077697468206574686572000000000000600082015250565b7f6e6f2070726976696c6564676500000000000000000000000000000000000000600082015250565b7f657363726f772e61646d696e2e6c6f6300000000000000000000000000000000600082015250565b610e4581610c9f565b8114610e5057600080fd5b50565b610e5c81610cb1565b8114610e6757600080fd5b5056fea26469706673582212206b54d176cac12ee25751fb46391f383d3fdcfc87746653edb91b138696d5160b64736f6c63430008030033",
  "immutableReferences": {},
  "source": "// SPDX-License-Identifier: MIT\npragma solidity ^0.8.3;\n\ncontract Escrow {\n\n    struct Order {\n        uint amount;\n        address from;\n        address to;\n        OrderState state;\n    }\n\n    enum OrderState {\n        Verifying,\n        Canceled,\n        Finished\n    }\n\n    mapping(bytes32 => Order) orderBook;\n    uint randNonce;\n\n    bytes32 private constant HANDLER_REGISTRY = keccak256(abi.encodePacked(\"escrow.admin.loc\"));\n\n    event LogDeposit(address from, uint amount, address to);\n    event LogConfirm(address from, uint amount, address to);\n    event LogRefund(address from, uint amount, address to);\n\n    modifier orderExist(bytes32 id) {\n        require(orderBook[id].amount != 0, \"order does not exist\");\n        _;\n    }\n\n    modifier withPriviledge(bytes32 id) {\n        require(orderBook[id].from == msg.sender || _getRegistry() == msg.sender, \"no priviledge\");\n        _;\n    }\n\n    modifier realDeposit() {\n        require(msg.value > 0 ether, \"need to deposit with ether\");\n        _;\n    }\n\n    modifier realAddress(address addr) {\n        require(addr != address(0));\n        _;\n    }\n\n    modifier isVerifying(bytes32 id) {\n        require(orderBook[id].state == OrderState.Verifying);\n        _;\n    }\n\n    constructor(address registry) {\n        bytes32 slot = HANDLER_REGISTRY;\n        assembly {\n            sstore(slot, registry)\n        }\n    }\n\n    receive() external payable {\n        revert();\n    }\n\n    fallback() external {\n        revert();\n    }\n\n    function deposit(address _to) external payable realDeposit realAddress(_to) returns (bytes32) {\n        bytes32 id = _randMod();\n        orderBook[id] = Order({\n            amount: msg.value,\n            from: msg.sender,\n            to: _to,\n            state: OrderState.Verifying\n        });\n        emit LogDeposit(msg.sender, msg.value, _to);\n        return id;\n    }\n\n    function confirm(bytes32 _id) external orderExist(_id) isVerifying(_id) withPriviledge(_id) {\n        uint amount = orderBook[_id].amount;\n        address to = orderBook[_id].to;\n        orderBook[_id].state = OrderState.Finished;\n        payable(address(to)).transfer(amount);\n        emit LogConfirm(msg.sender, amount, to);\n    }\n\n    function refund(bytes32 _id) external orderExist(_id) isVerifying(_id) withPriviledge(_id) {\n        uint amount = orderBook[_id].amount;\n        address from = orderBook[_id].from;\n        orderBook[_id].state = OrderState.Canceled;\n        payable(address(from)).transfer(amount);\n        emit LogRefund(from, amount, orderBook[_id].to);\n    }\n\n    function _getRegistry() internal view returns (address registry) {\n        bytes32 slot = HANDLER_REGISTRY;\n        assembly {\n            registry := sload(slot)\n        }\n    }\n\n    function _randMod() internal returns(bytes32) {\n    randNonce++;\n    return keccak256(abi.encodePacked(block.timestamp, msg.sender, randNonce));\n  }\n}\n\n",
  "sourcePath": "/Users/jeff/Documents/GO/Smart_Contract/Escrow/contracts/Escrow.sol",
  "compiler": {
    "name": "solc",
    "version": "0.8.3+commit.8d00100c.Emscripten.clang"
  },
  "schemaVersion": "3.4.1",
  "updatedAt": "2021-11-15T23:12:30.672Z",
  "devdoc": {
    "kind": "dev",
    "methods": {},
    "version": 1
  },
  "userdoc": {
    "kind": "user",
    "methods": {},
    "version": 1
  }
}